BTR980006400000113800011172TRY050220240000MASTER GLOBAL PAZARLAMA VE230863423   034SELAHADDÝN EYYÜBÝ MAH. 1538. SOKAK NO:43                                                                                                                                                                
D011331275911TR440006400000111331275911000000104049.56PINAR AKKILIÇ            2024 Ocak Net Ücret           21346635954CMarketing Coordinator                             17032023
D011331307516TR180006400000111331307516000000026746.36GÜLNÝHAL NEBÝLE SEÇKÝN   2024 Ocak Net Ücret           22909984946CSenior Graphic Designer                           01022016
D011331397148TR070006400000111331397148000000025143.19HÝLAL CEYLAN             2024 Ocak Net Ücret           42535340466CMuhasebe Uzmaný                                   01092015
D011331433794TR620006400000111331433794000000120590.00AYBUKE CELEBÝ CEBECÝ     2024 Ocak Net Ücret           53965204464CMarketýng Manager                                 01062016
D011331650347TR970006400000111331650347000000044337.16ALÝ OZAN TORUN           2024 Ocak Net Ücret           23762077486CDýþ Ticaret Müdür Yardýmcýsý                      01112017
D011331649962TR160006400000111331649962000000081204.50EMÝNE BURÇAK ELBEYÝ      2024 Ocak Net Ücret           18418694056CDýþ Ticaret Müdürü                                01112017
D012740479274TR940006400000112740479274000000028255.47BUSE AYNA                2024 Ocak Net Ücret           48928340266CJunior Dýþ Ticaret Uzmaný                         23052022
D011331650126TR500006400000111331650126000000043362.16MELÝH LEVENT AYKOL       2024 Ocak Net Ücret           20537436998CDýþ Ticaret Müdür Yardýmcýsý                      05042021
D010460913117TR780006400000110460913117000000027938.65TUÐBA ÇAÇAOÐULLARI       2024 Ocak Net Ücret           57925097936CJunior Dýþ Ticaret Uzmaný                         03012022
D012660230237TR760006400000112660230237000000020964.30SILA BOZKURT             2024 Ocak Net Ücret           33482423302CDýþ Ticaret Uzman Yardýmcýsý                      03072023
T00010000000522591.35
