BTR300006400000113800007449TRY050120240000MASTER TEKSTIL SAN. VE TÝC57381967    034SELAHADDÝN EYYÜBÝ MAH. 1538. SOKAK NO:43                                                                                                                                                                
D011331272978TR830006400000111331272978000000000741.61GÜLCAN AÐTAÞ             2023 Aralýk %100 Fazla Mesai  40264848512CDikim Operatörü                                   14122004
D011331650173TR420006400000111331650173000000000925.92KADER ARSLANMUÐUL        2023 Aralýk %100 Fazla Mesai  21059466968CDikim Operatörü                                   21062021
D01422456780 TR290006400000114220456780000000000217.91SERTAÇ TEMÝZCÝ           2023 Aralýk %100 Fazla Mesai  14804529766CÝdari Ýþler Personeli                             05122016
D011331321161TR090006400000111331321161000000001656.03ERTUÐRUL ÜNAL            2023 Aralýk %100 Fazla Mesai  22129968504CGüvenlik Görevlisi                                01072016
D011331460994TR490006400000111331460994000000002760.04AYHAN ÞÝMÞEK             2023 Aralýk %100 Fazla Mesai  15643411038CGüvenlik Yetkilisi                                01072016
D011331652994TR200006400000111331652994000000000199.80EMRE BAYSAL              2023 Aralýk %100 Fazla Mesai  65737319696CNumune Kesim Operatörü                            15032021
D011331651256TR950006400000111331651256000000002208.03KENAN EMÝR               2023 Aralýk %100 Fazla Mesai  36161069440CGüvenlik Görevlisi                                01072016
D011331650907TR120006400000111331650907000000002760.04ERDÝNÇ ÇELÝK             2023 Aralýk %100 Fazla Mesai  32150438938CGüvenlik Görevlisi                                27092016
D011331651792TR760006400000111331651792000000003312.05TAMER URKÞAÞ             2023 Aralýk %100 Fazla Mesai  43282529982CGüvenlik Görevlisi                                27022017
D012470448311TR690006400000112470448311000000000908.63RAHÝME KAÇAR             2023 Aralýk %100 Fazla Mesai  54310063866CDikim Operatörü                                   01112021
D011331651966TR340006400000111331651966000000000727.17PINAR KARAKUÞ            2023 Aralýk %100 Fazla Mesai  46450962376CDikim Operatörü                                   17072017
D011331649398TR150006400000111331649398000000000986.38SERHAT AYDIN             2023 Aralýk %100 Fazla Mesai  10118635612CAra Kontrol Operatörü                             09102017
D01422584052 TR070006400000114220584052000000000217.91MURAT UÇAK               2023 Aralýk %100 Fazla Mesai  13355578018CÝdari Ýþler Personeli                             01082022
D011331652889TR420006400000111331652889000000000908.63FERHAT ALAN              2023 Aralýk %100 Fazla Mesai  63007142890CDikim Operatörü                                   27012020
D05810650500 TR660006400000158100650500000000000354.74DURSUN ÇULFA             2023 Aralýk %100 Fazla Mesai  46147836942CDepo Operatörü                                    01062021
D05810650973 TR020006400000158100650973000000000354.74ZAFER OCAK               2023 Aralýk %100 Fazla Mesai  61144337346CDepo Operatörü                                    01062021
D011331652920TR780006400000111331652920000000000791.99ÖZCAN TAÞDEMÝR           2023 Aralýk %100 Fazla Mesai  64081371640CDikim Operatörü                                   16032023
D011331651669TR020006400000111331651669000000000908.63ÖMER URHAN               2023 Aralýk %100 Fazla Mesai  41896572080CDikim Operatörü                                   05072021
D011331651655TR890006400000111331651655000000000727.17LEYLA MORKOÇ             2023 Aralýk %100 Fazla Mesai  41848175918CDikim Operatörü                                   26072021
D011331649400TR580006400000111331649400000000000871.18MELÝKE DEMÝRCAN          2023 Aralýk %100 Fazla Mesai  10188080466CDikim Operatörü                                   26072021
D011331521909TR760006400000111331521909000000000727.17MERAL SEVÝNDÝK           2023 Aralýk %100 Fazla Mesai  13381530486CDikim Operatörü                                   26072021
D011331649682TR100006400000111331649682000000000727.17ÖZNUR DÝLEK              2023 Aralýk %100 Fazla Mesai  13667909012CDikim Operatörü                                   26072021
D011331651952TR240006400000111331651952000000000727.17FIRAT HASANOÐLU          2023 Aralýk %100 Fazla Mesai  46333428272CDikim Operatörü                                   02082021
D011331650985TR400006400000111331650985000000000828.01ZEKÝ CEYLAN              2023 Aralýk %100 Fazla Mesai  33134166434CDikim Operatörü                                   02082021
D011331653031TR880006400000111331653031000000000871.18FATMANUR YILDIZ          2023 Aralýk %100 Fazla Mesai  68158065098CDikim Operatörü                                   01102023
D012470639300TR800006400000112470639300000000000871.18ZUHAL ÞÝMÞEK             2023 Aralýk %100 Fazla Mesai  44590044808CDikim Operatörü                                   23082021
D011331653711TR610006400000111331653711000000000871.18YILDIZ GÜZHAN            2023 Aralýk %100 Fazla Mesai  52456224202CDikim Operatörü                                   23082021
D010681119008TR520006400000110681119008000000000828.01SÜLEYMAN OYMAN           2023 Aralýk %100 Fazla Mesai  26072092682CDikim Operatörü                                   16032023
D012470643582TR900006400000112470643582000000000871.18REYHAN ÇENÞÝ             2023 Aralýk %100 Fazla Mesai  15554454148CDikim Operatörü                                   20092021
D011331655818TR140006400000111331655818000000000727.17BUKET TARHAN             2023 Aralýk %100 Fazla Mesai  21176772430CDikim Operatörü                                   04102021
D011331656110TR840006400000111331656110000000000727.17SEVÝM ALAÞ               2023 Aralýk %100 Fazla Mesai  73429060832CDikim Operatörü                                   04102021
D012490234370TR960006400000112490234370000000000828.01SAMÝ BARIÞAN             2023 Aralýk %100 Fazla Mesai  56455361296CDikim Operatörü                                   01112021
D011331658426TR200006400000111331658426000000000828.01YÜCEL KABUK              2023 Aralýk %100 Fazla Mesai  64561386188CDikim Operatörü                                   16122023
D011901089849TR090006400000111901089849000000000828.01TUNCAY ELÝTAÞ            2023 Aralýk %100 Fazla Mesai  61921444304CDikim Operatörü                                   08112021
D014830167475TR060006400000114830167475000000000828.01SAVAÞ BOZTEPE            2023 Aralýk %100 Fazla Mesai  62491164340CDikim Operatörü                                   01122021
D012470658926TR890006400000112470658926000000000908.63KADÝR BATÝBEY            2023 Aralýk %100 Fazla Mesai  43132132874CDikim Operatörü                                   06122021
D012470660179TR140006400000112470660179000000000871.18SERPÝL ERDEM             2023 Aralýk %100 Fazla Mesai  29681367844CDikim Operatörü                                   13122021
D012470659600TR300006400000112470659600000000000871.18METÝN SARI               2023 Aralýk %100 Fazla Mesai  29831336386CDikim Operatörü                                   13122021
D011331668006TR590006400000111331668006000000000727.17HÜSNÝYE AKBULUT          2023 Aralýk %100 Fazla Mesai  18682910128CDikim Operatörü                                   14022022
D054115994   TR930006400000154110005994000000000059.61ORÇÝN AKYÜREK            2023 Aralýk %100 Fazla Mesai  57331341524CSevkiyat Depo Takým Lideri                        21032022
D012820185926TR290006400000112820185926000000000727.17SAKÝNE GÜMÜÞ TOPRAK      2023 Aralýk %100 Fazla Mesai  20362296842CDikim Operatörü                                   28032022
D012470680585TR120006400000112470680585000000003312.05SADETTÝN CANO            2023 Aralýk %100 Fazla Mesai  25024745560CGüvenlik Görevlisi                                11042022
D014830191141TR600006400000114830191141000000000871.18BURHAN YAZGAÇ            2023 Aralýk %100 Fazla Mesai  28978258346CDikim Operatörü                                   01082022
D012470456399TR400006400000112470456399000000000727.17SEVDA CÝHAN              2023 Aralýk %100 Fazla Mesai  55561507666CDikim Operatörü                                   21112022
D012470747087TR250006400000112470747087000000000727.17FATMA ÇAKIR              2023 Aralýk %100 Fazla Mesai  36320058322CDikim Operatörü                                   09012023
D012470749821TR240006400000112470749821000000000871.18GÜRKAN BABUR             2023 Aralýk %100 Fazla Mesai  30206185454CDikim Operatörü                                   30012023
D012740786865TR830006400000112740786865000000000871.18ALÝ ABAK                 2023 Aralýk %100 Fazla Mesai  68323230962CDikim Operatörü                                   01032023
D012300537301TR900006400000112300537301000000002208.03MUSTAFA ÞENEL            2023 Aralýk %100 Fazla Mesai  38713702348CGüvenlik Görevlisi                                03042023
D012470814619TR670006400000112470814619000000000871.18AHU AKBULUT              2023 Aralýk %100 Fazla Mesai  55576016498CDikim Operatörü                                   24042023
D012470820883TR100006400000112470820883000000002760.04SAMET BAL                2023 Aralýk %100 Fazla Mesai  43531340238CGüvenlik Görevlisi                                15052023
D014790152077TR700006400000114790152077000000003312.05FARUK ÇELÝK              2023 Aralýk %100 Fazla Mesai  33511401424CGüvenlik Görevlisi                                22052023
D014830267955TR390006400000114830267955000000002207.89SEDAT TANRIVERDÝ         2023 Aralýk %100 Fazla Mesai  15665291410CGüvenlik Görevlisi                                11092023
D058100722120TR210006400000158100722120000000000354.74ÝSA TATLI                2023 Aralýk %100 Fazla Mesai  41479992588CDepo Operatörü                                    09102023
T00053000000057886.03
